:1000000012C021C020C01FC01EC01DC01CC01BC00C
:100010001BC09DC018C017C016C015C014C013C0A7
:1000200012C011C010C011241FBECFE5D4E0DEBF46
:10003000CDBF20E0A0E6B0E001C01D92A736B20718
:10004000E1F7C3D0EAC0DCCF1F920F920FB60F9238
:1000500011242F933F938F939F9381EF8DBD80EF5A
:100060008CBD809166008F5F80936600C29B02C04A
:10007000C29801C0C29A809166008C33C1F410927C
:100080006600809165008F5F8093650080916500B8
:100090008C3339F410926500809164008F5F8093F7
:1000A000640080916400883111F4109264008091A2
:1000B000610080FD0DC080916400843149F480911D
:1000C00065008F3029F48091610089608093610020
:1000D000909161008091610091708870892B71F11D
:1000E0009091640080916200981328C090916500FF
:1000F0008091630098130EC08091610080FF0AC058
:10010000809161008E7F80936100809161008260A8
:1001100080936100209165008091630030E090E061
:1001200001962817390751F480916100846080930B
:10013000610080916100877F809361009F918F9122
:100140003F912F910F900FBE0F901F9018951F9207
:100150000F920FB60F9211248F938AE182BFC19B39
:1001600002C0C19801C0C19A8F910F900FBE0F902D
:100170001F90189583E1809364001092650010929F
:10018000660087E08093630086E080936200809140
:1001900063008F5F809360000895ECDF81EF8DBD79
:1001A00080EF8CBD84E089BF85E08EBD89B781601A
:1001B00089BF8AE182BF8CE082BB8FE187BB7894E4
:1001C0000895C39A0895C3980895E7DF829905C0FA
:1001D000809161008D7F80936100839905C0C499EF
:1001E00002C0C49A01C0C4988091610081FDE9DF1A
:1001F0008091610081FD04C0E6DF83B78D7F83BFFE
:100200008091610082FFE2CF83B7826083BF8091DB
:0E02100061008B7F80936100D9CFF894FFCFFF
:00000001FF
