:1000000012C021C020C01FC01EC01DC01CC01BC00C
:100010001BC0A9C018C017C016C015C014C013C09B
:1000200012C011C010C011241FBECFE5D4E0DEBF46
:10003000CDBF20E0A0E6B0E001C01D92A936B20716
:10004000E1F7D5D02EC1DCCF1F920F920FB60F92E1
:1000500011242F933F938F939F9381EF8DBD80EF5A
:100060008CBD809168008F5F80936800C29B02C046
:10007000C29801C0C29A809168008C3321F5109219
:100080006800809167008F5F8093670080916700B0
:100090008C3339F410926700809166008F5F8093F3
:1000A000660080916600883139F410926600809174
:1000B00065008F5F8093650080916500873019F43B
:1000C00081E0809365008091610080FD0DC080918A
:1000D0006600843149F4809167008F3029F4809163
:1000E000610089608093610090916100809161005E
:1000F00091708870892B71F19091660080916200F7
:10010000981328C0909167008091630098130EC0E7
:100110008091610080FF0AC0809161008E7F809392
:10012000610080916100826080936100209167008E
:100130008091630030E090E001962817390751F470
:100140008091610084608093610080916100877F6D
:10015000809361009F918F913F912F910F900FBEDF
:100160000F901F9018951F920F920FB60F921124A7
:100170008F938AE182BFC19B02C0C19801C0C19A1E
:100180008F910F900FBE0F901F90189584E1809370
:100190006600109267001092680085E08093650009
:1001A00084E08093640087E08093630086E080931E
:1001B0006200809163008F5F809360000895E6DFA6
:1001C00081EF8DBD80EF8CBD84E089BF85E08EBD61
:1001D00089B7816089BF8AE182BF8CE082BB8FE1F1
:1001E00087BB78940895C39A0895C3980895E7DF6C
:1001F00080916100896080936100929A18E0D7E055
:10020000C6E0829905C0809161008D7F8093610076
:10021000839905C0C49902C0C49A01C0C498809152
:10022000610081FDE0DF8091610081FD04C0DDDFC0
:1002300083B78D7F83BF8091610082FF08C083B741
:10024000826083BF809161008B7F80936100909179
:100250006400809165009817A1F28091650081305B
:1002600069F4D0936300C0936200809163008F5F54
:1002700080936000809165008093640080916500A8
:10028000863009F0BECF1092630010936200809117
:1002900063008F5F809360008091650080936400AD
:0602A000B0CFF894FFCF7F
:00000001FF
